:020000040800F2
:10000000500600209D010008A5010008A701000876
:10001000A9010008AB010008AD01000800000000C4
:10002000000000000000000000000000AF01000818
:10003000B101000800000000B301000835120008FB
:10004000B7010008B7010008B7010008B7010008B0
:10005000B7010008B7010008C5070008B70100088C
:10006000B7010008B7010008B7010008B701000890
:10007000B7010008B7010008B7010008B701000880
:10008000B7010008B701000809020008B70100081D
:10009000B7010008B7010008B7010008B701000860
:1000A000B7010008B7010008B7010008B701000850
:1000B000B7010008B701000800000000B701000800
:1000C000B70100080000000000000000B7010008B0
:1000D0000000000095180008B5180008B7010008D6
:1000E000B7010008B7010008000000000000000090
:1000F0000000000000000000000000000000000000
:1001000000000000000000000000000000000000EF
:100110000000000000000000D5130008B70100082F
:1001200000000000000000000000000000000000CF
:1001300000000000000000000000000000000000BF
:10014000B7010008B701000800000000B70100086F
:10015000B7010008B7010008B7010008B70100089F
:10016000B7010008B701000800000000000000000F
:10017000000000000000000000000000000000007F
:1001800000000000B7010008DFF80CD000F02AF8EA
:1001900000480047B51C000850060020064880476C
:1001A00006480047FEE7FEE7FEE7FEE7FEE7FEE75C
:1001B000FEE7FEE7FEE7FEE75113000889010008AD
:1001C00040EA01039B0703D009E008C9121F08C0D9
:1001D000042AFAD203E011F8013B00F8013B521E59
:1001E000F9D27047064C074D06E0E06840F0010385
:1001F00094E8070098471034AC42F6D3FFF7C8FFE5
:10020000C42C0008E42C000810B50421124800F0AA
:10021000FCF8B0B10421104800F0ABF80E4800F033
:10022000E7F80E490E4A127841F822000C4800788F
:10023000401C0B49087008460078022801DD0020A8
:1002400008700821044800F0E0F818B108210248BD
:1002500000F08FF810BD00000001005044020020A3
:100260009E00002010B58EB004464FF4807000F060
:1002700079FC0121080700F08DFC0121204600F0E7
:10028000F7F9022000F088FAA06820F08040A06012
:10029000A06840F00040A06000BFA06800F00040EF
:1002A0000028FAD1029003900220049000200190CF
:1002B00002208DF8140001A9204600F067F8012102
:1002C000204600F058F800BF0121204600F094F8C5
:1002D0000028F9D000200C9006900A904FF450703E
:1002E00008900020099001208DF8340000200B9028
:1002F000079006A9204600F019F90021204600F0D9
:100300002DF8052301220C21204600F02FF90EB014
:1003100010BD0A460021C16821F0F84141EA82611E
:10032000C160704710B5036A074C23400362036A3B
:1003300043EA01430362036A6FF30B030362036A38
:100340001343036210BD0000FFFF00F00A460021C6
:10035000C16821F0E0711143C160704721B1C268EA
:1003600042F48042C26003E0C26822F48042C2606C
:1003700070470160704721B1826842F001028260DB
:1003800003E0826842F002028260704710B50022EA
:10039000B0F1A04F02D0124B984204D1114B1A6811
:1003A000114B1A4003E0114B1A680F4B1A40D1E968
:1003B000003423438C682343CC6843EA04330C7C29
:1003C00043EA04231A43B0F1A04F02D0044B9842F1
:1003D00002D1044B1A6001E0044B1A6010BD00000A
:1003E0000001005008030050E010FCFF0807005017
:1003F0000146086C80B270470246002013680B402B
:100400000BB1012000E00020704730B5024600200B
:100410000023002415680D40ABB255680D40ACB206
:1004200013B10CB1012000E0002030BD1AB14368C7
:100430000B43436002E043688B434360704710B551
:100440008EB004464FF4807000F08CFB0121080749
:1004500000F0A0FB0121204600F00AF9022000F084
:100460009BF9A06820F08040A060A06840F00040A8
:10047000A06000BFA06800F000400028FAD1029000
:100480000390022004900020019002208DF81400B7
:1004900001A92046FFF77AFF01212046FFF76BFFF5
:1004A00000BF01212046FFF7A7FF0028F9D0002058
:1004B0000C9006900A904FF450700890002009901C
:1004C00001208DF8340000200B90079006A92046EB
:1004D00000F02CF800212046FFF740FF4FF4000108
:1004E0002046FFF733FF002240F6FF712046FFF75A
:1004F00019FF01212046FFF70CFF01220C214FF0CC
:10050000A040FFF793FF12208DF8000000208DF827
:10051000010001208DF802008DF803000323012261
:100520001146204600F022F80EB010BD10B502466C
:100530000020D0680C4B1840D1E9003423438C686C
:100540002343CC6823430C6923434C6923438C69C0
:1005500023431843D060106B20F00F000B7F5B1E0D
:100560001843106310BD000007C0FFFDF0B50C4636
:100570001D4600BF00BF052A0FDA016B02EB4206E1
:1005800077001F2606FA07F3994302EB420676002E
:1005900004FA06F3194301633CE00A2A11DA416BBD
:1005A000561F06EB460677001F2606FA07F3994307
:1005B000561F06EB4606760004FA06F3194341631C
:1005C00028E00F2A13DA816BA2F10A0606EB460631
:1005D00077001F2606FA07F39943A2F10A0606EBF5
:1005E0004606760004FA06F31943816312E0C16BF4
:1005F000A2F10F0606EB460677001F2606FA07F360
:100600009943A2F10F0606EB4606760004FA06F3BC
:100610001943C163092C14DD8169A4F10A0606EBB4
:100620004607072606FA07F386699E4386618669B0
:10063000A4F10A0707EB470705FA07F73E4386616F
:1006400010E04169661E06EB4607382606FA07F3F6
:1006500046699E434661466904EB440705FA07F77D
:100660003E434661F0BD816841F0040181607047FE
:10067000826822F04052826021B1826842F080524A
:10068000826003E0826842F0005282607047014657
:100690008888CA88904201D1012070470020FCE779
:1006A00001468888401C0A8990FBF2F302FB130084
:1006B000CA88904201D1012070470020FCE7016008
:1006C00000238380C38002818372704710B5034684
:1006D0000C461846FFF7DBFF78B9987A68B9D988D5
:1006E0001868405C2070D888401C198990FBF1F292
:1006F00001FB1200D880012010BD0020FCE730B5BE
:1007000004460D462046FFF7CBFF50B9A18820686C
:100710004554A088401C218990FBF1F201FB120096
:10072000A080A088E188884209D1E088401C218906
:1007300090FBF1F201FB1200E0800120A07230BDBD
:100740002DE9F04704460E4617469846DDE9089A1B
:100750002670677084F80280BAF1000F02D084F826
:10076000039001E00020E070207861780844A178CF
:100770000844E17808442071002506E0615D0548E1
:1007800001F01AFA002060556D1C042DF6DDBDE85D
:10079000F0870000004400400349086000BF0249A0
:1007A00009680029FBD17047A000002000B502466F
:1007B00002E06420FFF7F0FF101EA2F10102F8D161
:1007C00000BD00000D48006800F00100A8B10B4812
:1007D000006840F0010009490860084810380068C6
:1007E00020F001000549103908600548006820B96B
:1007F00003480068401C0249086070471404014027
:10080000600000201CB59020009003208DF80400AB
:1008100069464FF0904000F0C7F803200090694609
:10082000014800F0C1F81CBD0004004810B50446A2
:10083000B4F1904F09D10121480400F0BBF9002127
:100840004FF4003000F0B6F956E02C48844208D14D
:100850000121000200F0AEF90021200200F0AAF907
:100860004AE02748844208D10121000200F0A2F9A1
:100870000021200200F09EF93EE02248844209D186
:100880000121080500F096F900214FF4801000F0D6
:1008900091F931E01C48844208D10121400200F066
:1008A00089F90021600200F085F925E017488442AB
:1008B00009D10121880500F07DF900214FF4800065
:1008C00000F078F918E01248844209D10121C805E6
:1008D00000F070F900214FF4000000F06BF90BE01C
:1008E0000C48844208D10121080400F063F900217A
:1008F0004FF4803000F05EF910BD000000040048A5
:1009000000080048000C004800100048001400488F
:1009100000180048001C00481CB549F60270009001
:1009200001208DF8040000208DF8060002208DF8CB
:10093000070003208DF8050069464FF0904000F055
:1009400033F84FF4604000906946144800F02CF8EA
:100950004FF6FC4000906946114800F025F802204F
:10096000009069460F4800F01FF801200090002019
:100970008DF804008DF8070069460A4800F014F865
:100980000120009000208DF8040002208DF807005F
:1009900069464FF0904000F007F81CBD0008004881
:1009A0000004004800140048F0B50A460021002465
:1009B0000025002300BF3FE0012606FA01F4166877
:1009C00006EA0405A54236D11679012E02D0167921
:1009D000022E18D186684FEA410C032707FA0CF75C
:1009E000BE43866056794F00BE4087683E438660AE
:1009F000868801278F40BE438680878896798E40FF
:100A0000B6B23743878006684FEA410C032707FADE
:100A10000CF7BE43066016794F00BE4007683E43A0
:100A20000660C3684F000326BE40B343D6794F002B
:100A3000BE403343C360491C1029BDD3F0BDF0B59F
:100A4000002300244D07ED0E02FA05F3CE1000F14D
:100A5000200555F826504E07F70E0F26BE40B54329
:100A6000CF1000F1200646F82750CE1000F12005E7
:100A700055F8265045EA0304CE1000F1200545F84C
:100A80002640F0BD01857047816170471CB50C2080
:100A9000009002208DF8040000208DF8070003204C
:100AA0008DF8050069464FF09040FFF77DFF072263
:100AB00002214FF09040FFF7C2FF072203214FF0C1
:100AC0009040FFF7BCFF1CBD828A0A401AB1828A9F
:100AD0008A43828202E0828A0A438282704700004F
:100AE00070B5002100230F22C47804B3154C24688C
:100AF00004F4E064C4F5E064210AC1F10403CA40CF
:100B0000447804FA03F184781440214309010E4C1F
:100B10000678A155047804F01F050124AC4005783F
:100B20006D11AD0005F1E025C5F8004109E004783C
:100B300004F01F050124AC40044D0678761145F8F9
:100B4000264070BD0CED00E000E400E080E100E034
:100B500002490143024A1160704700000000FA0593
:100B60000CED00E00021010F31B1094AD26A22F4F4
:100B70007852074BDA6205E0054AD26A22F4F8722D
:100B8000034BDA62024AD26A0243014BDA627047CF
:100B90000010024029B1064A52690243044B5A61CF
:100BA00004E0034A52698243014B5A6170470000D6
:100BB0000010024029B1064A926A0243044B9A622D
:100BC00004E0034A926A8243014B9A627047000034
:100BD0000010024029B1064AD2690243044BDA618F
:100BE00004E0034AD2698243014BDA617047000096
:100BF0000010024029B1064A12690243044B1A61EF
:100C000004E0034A12698243014B1A6170470000F5
:100C10000010024029B1064A92690243044B9A61CE
:100C200004E0034A92698243014B9A6170470000D5
:100C30000010024029B1064AD2680243044BDA6030
:100C400004E0034AD2688243014BDA607047000037
:100C5000001002402DE9F0430022002600279446B0
:100C60000025002100230024DFF83C85D8F804800B
:100C700008F00C0222B1042A07D0082A30D109E07A
:100C8000DFF82885C0F800802FE0DFF82085C0F865
:100C900000802AE0DFF81085D8F8048008F4701688
:100CA000DFF80485D8F8048008F480374FF0020894
:100CB00008EB964627B9DFF8F88406FB08F10DE04B
:100CC000DFF8E484D8F82C8008F00F0808F1010C54
:100CD000DFF8D884B8FBFCF808FB06F1016004E0FB
:100CE000DFF8C884C0F8008000BF00BFDFF8B88418
:100CF000D8F8048008F0F0021209DFF8B88418F878
:100D00000240D0F8008028FA04F8C0F80480DFF828
:100D10009884D8F8048008F4E062120ADFF894841A
:100D200018F80250D0F8048028FA05F8C0F80880B6
:100D3000DFF87484D8F8048008F46052D20ADFF82F
:100D4000748418F80230D0F8048028FA03F8C0F848
:100D50000C80DFF85484D8F82C8008F4F87212095B
:100D600002F00F08DFF8509439F8185002F010081C
:100D7000B8F1000F05D025B1B1FBF5F8C0F810802F
:100D800003E0D0F80080C0F81080DFF81C84D8F8A9
:100D90002C8008F47852520A02F00F08DFF81894F9
:100DA00039F8185002F01008B8F1000F05D025B13D
:100DB000B1FBF5F8C0F8148003E0D0F80080C0F86B
:100DC0001480DFF8E483D8F8308008F01008B8F118
:100DD000100F04D0DFF8D483C0F8188003E0D0F8F7
:100DE0000080C0F81880DFF8C083D8F8308008F0A1
:100DF0002008B8F1200F04D0DFF8B083C0F81C80C1
:100E000003E0D0F80080C0F81C80DFF89C83D8F89D
:100E1000308008F04008B8F1400F04D0DFF88C8330
:100E2000C0F8208003E0D0F80080C0F82080DFF810
:100E30007883D8F8308008F48078B8F5807F0AD1BC
:100E4000D0F80080884506D1A34204D14FEA41087A
:100E5000C0F8248003E0D0F80C80C0F82480DFF8CC
:100E60004883D8F8308008F48058B8F5805F0AD1FC
:100E7000D0F80080884506D1A34204D14FEA41084A
:100E8000C0F8288003E0D0F80C80C0F82880DFF894
:100E90001883D8F8308008F40078B8F5007F0AD1BC
:100EA000D0F80080884506D1A34204D14FEA41081A
:100EB000C0F82C8003E0D0F80C80C0F82C80DFF85C
:100EC000E882D8F8308008F48068B8F5806F0AD1DD
:100ED000D0F80080884506D1A34204D14FEA4108EA
:100EE000C0F84C8003E0D0F80C80C0F84C80DFF8EC
:100EF000B882D8F8308008F40068B8F5006F0AD1DD
:100F0000D0F80080884506D1A34204D14FEA4108B9
:100F1000C0F8508003E0D0F80C80C0F85080DFF8B3
:100F20008882D8F8308008F40058B8F5005F0AD1FC
:100F3000D0F80080884506D1A34204D14FEA410889
:100F4000C0F8548003E0D0F80C80C0F85080DFF87F
:100F50005882D8F8308008F40048B8F5004F0AD11C
:100F6000D0F80080884506D1A34204D14FEA410859
:100F7000C0F8588003E0D0F80C80C0F85880DFF843
:100F80002882D8F8308008F00308B8F1000F04D1A7
:100F9000D0F80880C0F8388028E0DFF80C82D8F854
:100FA000308008F00308B8F1010F04D1D0F80080B8
:100FB000C0F838801AE0DFF8F081D8F8308008F007
:100FC0000308B8F1020F04D14FF40048C0F838808C
:100FD0000CE0DFF8D481D8F8308008F00308B8F1CD
:100FE000030F03D1DFF8C481C0F83880DFF8B8817F
:100FF000D8F8308008F44038B8F1000F04D1D0F8A8
:101000000880C0F83C8028E0DFF89C81D8F8308068
:1010100008F44038B8F5803F04D1D0F80080C0F81B
:101020003C801AE0DFF88081D8F8308008F440383E
:10103000B8F5003F04D14FF40048C0F83C800CE004
:10104000DFF86481D8F8308008F44038B8F5403FC4
:1010500003D1DFF85881C0F83C80DFF84C81D8F824
:10106000308008F44028B8F1000F04D1D0F808808F
:10107000C0F8408028E0DFF83081D8F8308008F4EC
:101080004028B8F5802F04D1D0F80080C0F8408007
:101090001AE0DFF81481D8F8308008F44028B8F559
:1010A000002F04D14FF40048C0F840800CE0DFF876
:1010B000F880D8F8308008F44028B8F5402F03D1E4
:1010C000DFF8E880C0F84080DFF8DC80D8F83080B6
:1010D00008F44018B8F1000F04D1D0F80880C0F827
:1010E000448028E0DFF8C080D8F8308008F4401849
:1010F000B8F5801F04D1D0F80080C0F844801AE011
:10110000DFF8A480D8F8308008F44018B8F5001F44
:1011100004D14FF40048C0F844800CE0DFF8888028
:10112000D8F8308008F44018B8F5401F03D1DFF834
:101130007C80C0F84480DFF87080D8F8308008F4F4
:101140004008B8F1000F04D1D0F80880C0F84880FA
:1011500028E0DFF85480D8F8308008F44008B8F56B
:10116000800F04D1D0F80080C0F848801AE0DFF882
:101170003880D8F8308008F44008B8F5000F04D162
:101180004FF40048C0F848800CE0DFF81C80D8F825
:10119000308008F44008B8F5400F03D1DFF80C8028
:1011A000C0F84880BDE8F0830010024000127A00C9
:1011B00000093D00000000201000002012201B4903
:1011C00008601B4840681A49486008464068486003
:1011D0000846406840F4806048600846406820F453
:1011E0007C1048600846406840F46010486008463B
:1011F000006840F08070086000BF0D48006800F093
:1012000000700028F9D00A48406820F0030008491F
:1012100048600846406840F00200486000BF04484B
:10122000406800F00C000828F9D170470020024007
:10123000001002400448006820B103480068401EC6
:101240000149086070470000A000002070B500F060
:101250002FF813480068134AB0FBF2F1481EB0F1B2
:10126000807F00D31BE0481E4FF0E02250615017F2
:101270000F22002807DA13071D0E0B4B00F00F0496
:10128000241F1D5503E013071C0E084B1C5400BF00
:1012900000204FF0E02290610720106100BF70BD78
:1012A000A4000020A086010018ED00E000E400E0AA
:1012B00030B50021002000220023204C646804F097
:1012C0000C0121B1042906D0082925D107E01C4CC6
:1012D0001C4D2C6024E01A4C1A4D2C6020E0174C59
:1012E000646804F47010154C646804F480320224BD
:1012F00004EB904022B9144C4443124D2C600AE098
:101300000E4CE46A04F00F04631C0D4CB4FBF3F4C0
:1013100044430C4D2C6003E0094C0A4D2C6000BF87
:1013200000BF064C6468C4F30314084D295D054CE6
:101330002468CC40034D2C6030BD000000100240FA
:1013400000127A00A400002000093D00A80000203F
:1013500010B51B48006840F470001949086019482E
:10136000006840F0010017490860084640681649C7
:10137000084014494860084600681449084011496B
:1013800008600846006820F480200860084640682D
:1013900020F4FE0048600846C06A20F00F00C862D2
:1013A0000846006B0A490840064908630020886027
:1013B000FFF704FF4FF0006001498039086010BD5D
:1013C00088ED00E0001002400CC07FF8FFFFF6FE41
:1013D000CCFC00FF10B50121304800F061F9002875
:1013E0005AD001212D4800F0B9F82D480068401C62
:1013F0002B4908602B480068401C2A4908602A488D
:101400000068401C2849086028480068401C27499B
:10141000086027480068401C254908602548006886
:1014200020B124480068401C224908602248007806
:10143000012804D121480068401C20490860204848
:101440000078012804D11F480068401C1D4908602D
:101450001D480068012804D11C480068401C1B4935
:10146000086019480068022804D119480068401C27
:101470001749086014480068032804D1154800681B
:10148000401C1449086010480068042804D1124820
:101490000068401C1049086010BD000000100040AA
:1014A000640000208C0000209000002094000020A8
:1014B00098000020600000206800002088000020C4
:1014C000700000206C0000207400002078000020D4
:1014D0007C00002080000020840000201FB51E48F2
:1014E00000F040F801211020FFF774FB0020ADF858
:1014F00002003F20ADF8000040F2E730019069465D
:10150000154800F0EDF801221146134800F0D9F813
:101510004FF4C060FFF71CFB36208DF80C00012053
:101520008DF80D0000208DF80E0001208DF80F00C1
:1015300003A8FFF7D5FA0021074800F0CEF80648C7
:10154000406940F00100044948610846008840F0C5
:10155000010008801FBD000000100040CA4392B285
:101560000261704710B504464348844208D1012106
:10157000C014FFF75FFB0021E014FFF75BFB7AE08C
:10158000B4F1804F08D101210846FFF733FB002159
:101590000120FFF72FFB6EE03848844208D101217B
:1015A0000220FFF727FB00210220FFF723FB62E068
:1015B0003348844208D101210420FFF71BFB00219E
:1015C0000420FFF717FB56E02E48844208D1012182
:1015D0001020FFF70FFB00211020FFF70BFB4AE064
:1015E0002948844208D101212020FFF703FB002174
:1015F0002020FFF7FFFA3EE02448844208D1012171
:101600004014FFF717FB00216014FFF713FB32E0D3
:101610001F48844209D101210804FFF70BFB002178
:101620004FF48030FFF706FB25E01A48844209D1C9
:1016300001214804FFF7FEFA00214FF40030FFF7C4
:10164000F9FA18E01448844209D101218804FFF70F
:10165000F1FA00214FF48020FFF7ECFA0BE00F487D
:10166000844208D101210805FFF7E4FA00214FF474
:101670008010FFF7DFFA10BD002C0140000400408D
:1016800000080040001000400014004000340140F9
:10169000004001400044014000480140005001402A
:1016A00030B50246002000230024156905EA010335
:1016B000D56805EA010413B10CB1012000E0002057
:1016C00030BD10B51AB1C3680B43C36004E0C368F2
:1016D000CC43A4B22340C36010BD416270470000F8
:1016E000002202881E4B98420ED01E4B98420BD00F
:1016F000B0F1804F08D01C4B984205D01B4B98424C
:1017000002D01B4B984204D14FF68F731A404B887E
:101710001A43184B984207D0174B984204D04FF603
:10172000FF431A400B891A4302804B68C3620B883F
:1017300003850B4B98420ED00A4B98420BD00F4BAF
:10174000984208D00E4B984205D00E4B984202D0DA
:10175000074B984201D14B890386012343617047AF
:10176000002C01400034014000040040000800400B
:1017700000500140001000400014004000400140B3
:10178000004401400048014000210170417041F2D5
:1017900088314160002101720022427241F2883298
:1017A000C26001740022427441F2883242610176C3
:1017B0000022427641F28832C26180F82010002275
:1017C00021210A5441F288324262002180F8281017
:1017D000002229210A5441F28832C262002180F895
:1017E0003010002231210A5441F288324263002134
:1017F00080F83810002239210A5441F28832C2633D
:10180000002180F84010002241210A5441F2883220
:101810004264002180F84810002249210A5441F214
:101820008832C264002180F85010002251210A54ED
:1018300041F288324265002180F858100022592177
:101840000A5441F28832C265002180F860100022FB
:1018500061210A5441F288324266002180F8681002
:10186000002269210A5441F28832C266002180F8C0
:101870007010002271210A5441F28832426700211F
:1018800080F87810002279210A5441F28832C26728
:101890007047000010B50549054800F08BF818B1F5
:1018A0000249034800F024F810BD000005010500BE
:1018B0000038014010B50A490A4800F07BF868B1C9
:1018C0000749084800F014F8064824300088064903
:1018D0000870084601780548FEF711FF10BD0000AA
:1018E000050105000044004054000020380200209B
:1018F00010B5002200230A0C012404FA02F303624B
:1019000010BD21B1026842F00102026003E00268EA
:1019100022F001020260704710B50446204884425C
:1019200009D101218803FFF785F900214FF4804098
:10193000FFF780F932E01B48844209D101214804B5
:10194000FFF758F900214FF40030FFF753F925E075
:101950001548844209D101218804FFF74BF9002181
:101960004FF48020FFF746F918E01048844209D16F
:101970000121C804FFF73EF900214FF40020FFF7D2
:1019800039F90BE00A48844208D101210805FFF724
:1019900031F900214FF48010FFF72CF910BD000041
:1019A000003801400044004000480040004C004026
:1019B0000050004070B502460B460024002100256F
:1019C0000020C3F30725D9B2012606FA01F1012D43
:1019D00002D11668314006E0022D02D1566831402E
:1019E00001E0966831401C0C012606FA04F4D66921
:1019F000344011B10CB1012000E0002070BDF0B501
:101A0000034600240026002500201846C1F30724C1
:101A1000CEB2012707FA06F5022C01D1001D02E023
:101A2000032C00D108301AB107682F43076002E089
:101A30000768AF430760F0BD2DE9F04198B0044658
:101A40000D460027B8460026206820F001002060DF
:101A5000666826F44056A86806436660266841F228
:101A60000C608643E96868680843296908430643AF
:101A70002660A66826F4407668690643A66001A839
:101A8000FFF7E8F82348844202D1DDF83C8013E0F8
:101A90002148844202D1DDF840800DE01F48844295
:101AA00002D1DDF8448007E01D48844202D1DDF810
:101AB000488001E0DDF84C80206800F4004060B10F
:101AC0004FEA48002968B0FBF1F74FEA480029685F
:101AD000B0FBF1F201FB120607E02868B8FBF0F753
:101AE0002868B8FBF0F100FB11862868B6EB500FB0
:101AF00000D37F1C206800F4004038B1C7F34206D1
:101B00004FF6F07107EA010040EA0607A78118B016
:101B1000BDE8F0810038014000440040004800402A
:101B2000004C004010B588B004461D48844204D1E2
:101B300001214804FFF74EF803E001218803FFF775
:101B400069F82046FFF7E8FE4FF4E13002900020EC
:101B500003900490059007900C20069002A920465F
:101B6000FFF76AFF01220F492046FFF748FF4FF4B5
:101B7000C060FEF7EDFF26208DF8040000208DF8F0
:101B800005008DF8060001208DF8070001A8FEF77A
:101B9000A7FF01212046FFF7B4FE08B010BD0000EA
:101BA000004400400501050000BFC26902F0800248
:101BB000002AFAD00185704700BFC26902F0800296
:101BC00022B9C26902F04002002AF6D0026A22F06D
:101BD00040020262C1F308020285704702E008C8B1
:101BE000121F08C1002AFAD170477047002001E097
:101BF00001C1121F002AFBD17047000010B5024638
:101C000000208A420CD2084B1B785B1C064C2370C8
:101C100023461B78032B06DD00232370012002E0FE
:101C20000023014C237010BD3400002010B5024683
:101C300001290CD1002307E012F83340012C01D117
:101C4000002003E001205B1C102BF5DB1EE00229C5
:101C50000CD1002307E012F83340012C01D1012000
:101C600003E000205B1C102BF5DB0FE003290DD1F6
:101C7000002308E002EBC3046478012C01D10120A9
:101C800003E000205B1C102BF4DB00BF10BD10B57F
:101C9000034614461868884202D818680A1A01E0F8
:101CA0001868421AA24202D91960012010BD002012
:101CB000FCE70000AAB02822F8491BA8FEF780FA2A
:101CC0002822F649283111A8FEF77AFA1822F3499A
:101CD00050310BA8FEF774FA1822F049683105A8B4
:101CE000FEF76EFAEE48FEF7A1FDEE48FEF79EFD08
:101CF0004FF09040FEF79AFDEB48406940F4003009
:101D0000E94948610846406940F480204861084636
:101D1000406940F4002048610846406940F4800072
:101D200048612020039001208DF8100003208DF8D9
:101D3000110000208DF812008DF813000B9A91B25B
:101D40000598FEF79FFEFFF781FA4FF4E060FEF77B
:101D5000FFFEFEF7E1FDFEF799FEFEF753FD4FF49F
:101D60008072D249D248FEF7AAFCD248FEF767FB40
:101D70004FF0A040FEF776FACF48FFF7D3FECF48EA
:101D8000FFF702FD4FF0000800BF00BF00BF00BF1B
:101D900000BF00BF00BF00BF00BF00BF00BF00BF4B
:101DA00000BF00BF00BF00BF00BF00BF00BF0026D4
:101DB0000A2708E00221C248FEF786FEC820FEF787
:101DC000F5FC781EC7B2002FF4DCFFF787FBFDE3BC
:101DD0004FF47A72BB480168BB48FFF758FF18B14F
:101DE0000221B748FEF770FE4FF09040008A00F0E5
:101DF000010040BB41F28832B2480168B348FFF7A6
:101E000046FFF8B1AD4890F87900012807D1B049F4
:101E10000870B0480078401CAE4908701DE0A74823
:101E200090F8790070B90220A94908700020A949EA
:101E30000870012055210B460A46CDE9001025A85F
:101E4000FEF77EFC09E032229E480168A248FFF7B7
:101E50001EFF10B100209F490870A04800680A28A2
:101E600010D1B8F1010F0DD1002003E0002127AA05
:101E70001154401C0728F9DB002099490870974944
:101E80000860804629A98A48FEF720FC00287CD0FB
:101E900094480078002878D191480078082817D213
:101EA000DFE800F00417232F3B47535F9DF8A400A1
:101EB000AA2808D19DF8A40027A9894A1278885435
:101EC0000120874908700020844908604FF001080C
:101ED0007AE09DF8A41027A8814A12788154022044
:101EE0007F4908704FF001086EE09DF8A41027A804
:101EF0007B4A127881540320794908704FF0010819
:101F000062E09DF8A41027A8754A12788154042035
:101F1000734908704FF0010856E09DF8A40027A906
:101F20006F4A1278885405206D4908704FF00108F7
:101F30004AE09DF8A41027A8694A12788154062027
:101F4000674908704FF001083EE09DF8A40027A9FA
:101F5000634A127888540720614908704FF00108DD
:101F600032E09DF8A400552822D19DF8A41027A89E
:101F70005B4A127881549DF89D009DF89E1008449C
:101F8000FF2812D19DF89F0000E01EE09DF8A010F0
:101F90000844FF2809D19DF8A1009DF8A21008442B
:101FA000FF2802D101204F4908704FF0000807E0D8
:101FB000002003E0002127AA1154401C0728F9DB68
:101FC00000204749087000BF00BF4648007800283D
:101FD00062D04548007800285ED1424908709DF8DB
:101FE0009D0018B900208DF8940002E05C208DF867
:101FF00095009DF89F00CA284FD010DC742875D03A
:1020000006DC64281CD065282AD068286FD105E139
:1020100075286DD076286CD0C928F7D16FE0D2280A
:1020200068D006DCCB287DD0CF287CD0D128EDD15C
:10203000B8E0D32878D0DC2822D0DD28E6D1E4E04F
:102040009DF8A100552807D101211C488030FFF7D9
:10205000EDFD1A49087002E05C208DF8950051E111
:102060009DF8A100552807D1012114488030FFF7C1
:10207000DDFD1249087202E05C208DF8950041E117
:102080009DF8A100552836D101210C488030FFF77A
:10209000CDFD0A49087431E043E14CE0442C0008CE
:1020A000000800480004004800100240B80000206A
:1020B000380200200001005000440040B801002018
:1020C0000014004864000020440000203800002074
:1020D00037000020400000203C0000209400002039
:1020E000350000203600002068000020ABE0E1E071
:1020F000CFE0BDE067E05C208DF8950002E155215E
:10210000FE48FFF751FD9DF8A100012803DB9DF873
:10211000A10050280BDD0121F948FFF787FDF849A0
:10212000803902E01CE02CE05EE0087602E05C20F2
:102130008DF89500E6E09DF8A100012803DB9DF8ED
:10214000A100502808DD0121ED48FFF76FFDEC49A3
:10215000803981F8200002E05C208DF89500D1E004
:102160009DF8A100552808D10121E548FFF75EFD43
:10217000E349803981F8280002E05C208DF8950061
:10218000C0E09DF8A100322803DD5C208DF89500A9
:1021900007E00121DA48FFF749FDD949803981F884
:1021A0003000AFE09DF8A100322803DD5C208DF8FF
:1021B000950007E00121D248FFF738FDD04980396A
:1021C00081F838009EE09DF8A100642803DD5C20C2
:1021D0008DF8950007E00121C948FFF727FDC849A0
:1021E000803981F840008DE09DF8A100322803DDA0
:1021F0005C208DF8950007E00121C148FFF716FD2E
:10220000BF49803981F848007CE00121BC48FFF7D4
:102210000DFDBB49803981F8500073E09DF8A100A5
:10222000012803DB9DF8A100502808DD0121B448F6
:10223000FFF7FCFCB249803981F8580002E05C20CD
:102240008DF895005EE09DF8A100012803DB9DF864
:10225000A100502808DD0121A948FFF7E7FCA849A3
:10226000803981F8600002E05C208DF8950049E03B
:102270009DF8A100552808D10121A148FFF7D6FCFF
:102280009F49803981F8680002E05C208DF8950054
:1022900038E09DF8A100552808D101219848FFF7A2
:1022A000C5FC9749803981F8700002E05C208DF808
:1022B000950027E09DF89F0000281FDB9DF89F00F8
:1022C00050281BDC9DF89F000A280BDB9DF89F001F
:1022D0000A2190FBF1F49DF89F0004EB8401A0EB30
:1022E000410502E000249DF89F5001218448FFF73A
:1022F0009DFC8349803981F8780002E05C208DF8EC
:10230000950000BF00BF9DF895005C2809D1002012
:10231000012103465C22CDE90010014625A8FEF705
:102320000FFA7848007820B902217548FFF77EFC43
:1023300028B903217248FFF779FC00287ED0704845
:10234000803890F87800002879D001206D49087015
:102350006B48803890F87900012871D16A4800787C
:1023600030BB1BAA32F8252091B211AA52F82500E1
:10237000FEF78AFB0BAA32F8242091B205AA52F884
:102380002400FEF781FB6148FEF76DF96048007894
:1023900010B901205E49087000BF04215B48FEF7B8
:1023A0002BF80028F9D05948FEF722F8594908605F
:1023B00057480078012823D156480068B0F5805F5F
:1023C00012D31BAA32F8252091B211AA52F8250087
:1023D000FEF758FB0BAA32F8242091B205AA52F856
:1023E0002400FEF74FFBFDE04B480068B0F5C87FC6
:1023F000F9DD002048490860022045490870F1E0F5
:1024000043480078022805D1C82142480068FFF7F8
:10241000F5FB18B93C480078012855D13A480078B6
:1024200020B93E480078401C3C4908703B48007881
:1024300001281EDB34480078D8B902E00BE118E12E
:102440000AE10020354908700BAA32F8242091B225
:1024500005AA52F82400FEF715FB1BAA32F8252026
:1024600091B211AA52F82500FEF70CFB0120264973
:10247000087025480078012825D1002022490870DD
:10248000002727480078012801D1012700E0032711
:10249000012000235D221946CDE9007025A8FEF732
:1024A0004FF9002700201A4908701E4908600021D2
:1024B0001348803880F8791000201149803981F85C
:1024C0007800104908708DE01148007802284ED13C
:1024D00010480068B0F5805F4AD31BAA32F8252067
:1024E00091B211AA52F82500FEF7CCFA0BAA32F8E5
:1024F000242091B205AA52F8240015E000440040BF
:10250000380200206800002049000020000100502F
:1025100070000020300000206C0000204A000020E5
:102520003700002088000020FEF7ACFA0027F948A9
:102530000078012801D1012700E003270020009046
:1025400030235C220146019025A8FEF7F9F8002708
:102550000020F1490870F14908600021F04880F836
:1025600079100020EE4981F87800EE49087039E0D2
:10257000ED480068642835D21BAA32F8252091B2B4
:1025800011AA52F82500FEF77DFA0BAA32F8242092
:1025900091B205AA52F82400FEF774FA0027DD482C
:1025A0000078012801D1012700E0032700200090D6
:1025B00040235C220146019025A8FEF7C1F80027C0
:1025C0000020D5490870D549086000E02CE30021BF
:1025D000D34880F879100020D14981F87800D1499A
:1025E000087000BFCE48C06FCC490968884232D21B
:1025F0000BAA32F8242091B205AA52F82400FEF763
:1026000041FA1BAA32F8252091B211AA52F82500EE
:10261000FEF738FA0027BF480078012801D10127CA
:1026200000E00327012050235C220021CDE9007047
:1026300025A8FEF785F800270020B7490870B7499C
:1026400008600021B64880F879100020B44981F86C
:102650007800B4490870CBE2B14890F879000028BE
:10266000F9D10121AE4880F879100020A9490870FD
:10267000BEE2AB480078E8B10120AA490870A8483A
:10268000407801280ED1A6484068A44909688842CC
:10269000E1D20020A1490860A14948700870A14911
:1026A0000870A5E29E4840780028D4D101209C49BA
:1026B00048709DE29A48007A00B301209949087059
:1026C0009748407A012811D19548C0689349096814
:1026D0008842C0D200209149086000219048417290
:1026E00000208F4908728F49087081E28C48407A37
:1026F0000028B0D101218A48417279E28848007CE3
:10270000F0B30120874908708548407C012849D1F1
:1027100086480078401C85490870084600783228B1
:1027200023DD00200870012E01DB642E09DD00206E
:10273000009003465C220146019025A8FEF700F8B0
:1027400008E00020009033465D220146019025A854
:10275000FDF7F6FF002071490860002170484174C0
:1027600000206F4908746F4908706D4840696B49D3
:102770000968884295D20020009050235C2200E036
:1027800018E00146019025A8FDF7DAFF0020634913
:102790000860002162484174002061490874614961
:1027A000087025E25E48407C00289ED101215C48EB
:1027B00041741DE25A48007E00B301205949087057
:1027C0005748407E012811D15548C06953490968CE
:1027D00088428AD200205149086000215048417641
:1027E00000204F4908764F49087001E24C48407E6E
:1027F0000028D6D101214A484176F9E1484890F8AD
:10280000200028B3012047490870454890F821006E
:10281000012813D14248406A404909688842C0D221
:1028200000203E49086000213D4880F8211000202A
:102830003B4981F820003B490870D9E1384890F8BD
:1028400021000028ADD10121354880F82110CFE1C9
:10285000334890F8280028B30120324908703048E6
:1028600090F82900012813D12D48C06A2B49096826
:10287000884296D20020294908600021284880F823
:1028800029100020264981F8280026490870AFE168
:10289000234890F8290000288BD10121204880F896
:1028A0002910A5E11E4890F8300090B301201D4981
:1028B00008701B4890F83100012820D11848406B5F
:1028C00016490968884290D20020009003460246CB
:1028D0000146019025A8FDF733FF00BF00BF00208F
:1028E000134908600D49086000210D4880F8311037
:1028F00000200B4981F830000A49087078E1084847
:1029000090F83100002898D10121054880F8311055
:102910006EE10FE0370000207000002088000020EA
:10292000B801002068000020300000205000002086
:102930008C000020BD4890F8380028B30120BC4925
:102940000870BA4890F83900012813D1B748C06B15
:10295000B849096888429AD20020B6490860002127
:10296000B24880F839100020B04981F83800B049E9
:1029700008703DE1AD4890F83900002887D1012169
:10298000AA4880F8391033E1A84890F8400078B39D
:102990000120A7490870A54890F8410001281DD1E1
:1029A000A248406CA3490968884216D200BF0020A3
:1029B0000090034602460146019025A8FDF7C0FE9F
:1029C00000209C4908600021984880F841100020B0
:1029D000964981F840009649087009E1934890F8BB
:1029E0004100002803D10121904880F84110FFE008
:1029F000FFE78E4890F8480070B301208C490870BA
:102A00008A4890F8490001281DD18848C06C89493E
:102A10000968884216D200BF002000900346024693
:102A20000146019025A8FDF78BFE00208149086032
:102A300000217E4880F8491000207C4981F8480038
:102A40007B490870D4E0794890F8490018BB01210F
:102A5000764880F84910CBE0744890F8500020B3D5
:102A6000012073490870714890F85100012813D172
:102A70006E48406D6F49096888420CD200206D494C
:102A800008600021694880F851100020674981F8EA
:102A9000500067490870ABE0644890F8510018BBDB
:102AA0000121624880F85110A2E0604890F8580077
:102AB00020B301205E4908705C4890F85900012855
:102AC00013D15A48C06D5B49096888420CD2002076
:102AD000584908600021554880F859100020534992
:102AE00081F858005249087082E0504890F8590027
:102AF00018BB01214D4880F8591079E04B4890F8F7
:102B0000600020B301204A490870484890F86100ED
:102B1000012813D14548406E46490968884267D26A
:102B20000020444908600021404880F861100020DE
:102B30003E4981F860003E49087059E03B4890F8F2
:102B4000610018BB0121394880F8611050E0374816
:102B500090F8680020B3012035490870334890F898
:102B60006900012813D13148C06E32490968884292
:102B70003ED200202F49086000212C4880F86910BF
:102B800000202A4981F868002949087030E0274868
:102B900090F8690018BB0121244880F8691027E0EB
:102BA000224890F87000D0B10120214908701F48D8
:102BB00090F87100012813D11C48406F1D49096825
:102BC000884215D200201B4908600021174880F870
:102BD00071100020154981F870001549087007E050
:102BE000124890F8710018B90121104880F871104E
:102BF0004FF400411048FDF747FF1048006841F2CC
:102C00008831884203D104210D48FDF73DFF0B4870
:102C1000006842F21071884206D104210848FDF78D
:102C200031FF002005490860FFF7D2B8B801002045
:102C3000680000208800002000080048980000205C
:102C4000000400480010000000080000000400001C
:102C500000020000000100000080000000400000B1
:102C600000200000001000000008000000000048E4
:102C70000000004800000048000000480000004834
:102C80000004004800040048000400480004004814
:102C90000004004800800000080000001000000050
:102CA00020000000400000008000000000000048FC
:102CB00000040048000400480004004800040048E4
:102CC00000040048E42C000800000020B8000000C8
:102CD000DC1B00089C2D0008B800002098050000AF
:102CE000EC1B0008000000000102030401020304C1
:102CF00006070809010002000400060008000A0097
:102D00000C001000200040008000000100000000C6
:102D100000000000000000000000000000000000B3
:102D200000000000000000000000000000000000A3
:102D30000000000000000000000000000000000093
:102D40000000000000000000000000000000000083
:102D50000000000000000000000000000000000073
:102D60000000000000000000000000000000000063
:102D70000000000000000000000000000000000053
:102D8000000000000000000000A24A040000000053
:0C2D90000000000001020304060708090F
:040000050800018965
:00000001FF
